{
  "_format": "hh-sol-artifact-1",
  "contractName": "MarketplaceList",
  "sourceName": "contracts/MarketplaceList.sol",
  "abi": [
    {
      "anonymous": false,
      "inputs": [
        {
          "indexed": false,
          "internalType": "string",
          "name": "mpName",
          "type": "string"
        },
        {
          "indexed": false,
          "internalType": "string",
          "name": "mpMetaHash",
          "type": "string"
        },
        {
          "indexed": false,
          "internalType": "address",
          "name": "mpAddress",
          "type": "address"
        }
      ],
      "name": "MarketplaceAdded",
      "type": "event"
    },
    {
      "anonymous": false,
      "inputs": [
        {
          "indexed": true,
          "internalType": "address",
          "name": "previousOwner",
          "type": "address"
        }
      ],
      "name": "OwnershipRenounced",
      "type": "event"
    },
    {
      "anonymous": false,
      "inputs": [
        {
          "indexed": true,
          "internalType": "address",
          "name": "previousOwner",
          "type": "address"
        },
        {
          "indexed": true,
          "internalType": "address",
          "name": "newOwner",
          "type": "address"
        }
      ],
      "name": "OwnershipTransferred",
      "type": "event"
    },
    {
      "inputs": [
        {
          "internalType": "string",
          "name": "_mpName",
          "type": "string"
        },
        {
          "internalType": "string",
          "name": "_mpMetaHash",
          "type": "string"
        },
        {
          "internalType": "address",
          "name": "_mpAddress",
          "type": "address"
        }
      ],
      "name": "addMarketplace",
      "outputs": [],
      "stateMutability": "nonpayable",
      "type": "function"
    },
    {
      "inputs": [],
      "name": "defaultTTL",
      "outputs": [
        {
          "internalType": "uint256",
          "name": "",
          "type": "uint256"
        }
      ],
      "stateMutability": "view",
      "type": "function"
    },
    {
      "inputs": [],
      "name": "getName",
      "outputs": [
        {
          "internalType": "string",
          "name": "",
          "type": "string"
        }
      ],
      "stateMutability": "view",
      "type": "function"
    },
    {
      "inputs": [
        {
          "internalType": "uint256",
          "name": "",
          "type": "uint256"
        }
      ],
      "name": "mpListArray",
      "outputs": [
        {
          "internalType": "string",
          "name": "mpName",
          "type": "string"
        },
        {
          "internalType": "string",
          "name": "mpMetaHash",
          "type": "string"
        },
        {
          "internalType": "address",
          "name": "mpAddress",
          "type": "address"
        },
        {
          "internalType": "bool",
          "name": "mpShown",
          "type": "bool"
        }
      ],
      "stateMutability": "view",
      "type": "function"
    },
    {
      "inputs": [],
      "name": "name",
      "outputs": [
        {
          "internalType": "string",
          "name": "",
          "type": "string"
        }
      ],
      "stateMutability": "view",
      "type": "function"
    },
    {
      "inputs": [],
      "name": "numberOfMarketplaces",
      "outputs": [
        {
          "internalType": "uint256",
          "name": "",
          "type": "uint256"
        }
      ],
      "stateMutability": "view",
      "type": "function"
    },
    {
      "inputs": [],
      "name": "owner",
      "outputs": [
        {
          "internalType": "address",
          "name": "",
          "type": "address"
        }
      ],
      "stateMutability": "view",
      "type": "function"
    },
    {
      "inputs": [
        {
          "internalType": "uint256",
          "name": "_index",
          "type": "uint256"
        }
      ],
      "name": "readMarketplace",
      "outputs": [
        {
          "internalType": "string",
          "name": "mpName",
          "type": "string"
        },
        {
          "internalType": "string",
          "name": "mpMetaHash",
          "type": "string"
        },
        {
          "internalType": "address",
          "name": "mpAddress",
          "type": "address"
        },
        {
          "internalType": "bool",
          "name": "mpShown",
          "type": "bool"
        }
      ],
      "stateMutability": "view",
      "type": "function"
    },
    {
      "inputs": [],
      "name": "renounceOwnership",
      "outputs": [],
      "stateMutability": "nonpayable",
      "type": "function"
    },
    {
      "inputs": [
        {
          "internalType": "string",
          "name": "_name",
          "type": "string"
        }
      ],
      "name": "setName",
      "outputs": [],
      "stateMutability": "nonpayable",
      "type": "function"
    },
    {
      "inputs": [
        {
          "internalType": "address",
          "name": "newOwner",
          "type": "address"
        }
      ],
      "name": "transferOwnership",
      "outputs": [],
      "stateMutability": "nonpayable",
      "type": "function"
    }
  ],
  "bytecode": "0x608060405234801561001057600080fd5b50336000806101000a81548173ffffffffffffffffffffffffffffffffffffffff021916908373ffffffffffffffffffffffffffffffffffffffff1602179055506110c1806100606000396000f3fe608060405234801561001057600080fd5b50600436106100a95760003560e01c8063715018a611610071578063715018a6146101595780638da5cb5b14610163578063b1ae4f1214610181578063c47f00271461019d578063e4311060146101b9578063f2fde38b146101ec576100a9565b806306fdde03146100ae57806317d7de7c146100cc57806335d4d0c7146100ea578063447263691461010857806347426ed21461013b575b600080fd5b6100b6610208565b6040516100c39190610bc7565b60405180910390f35b6100d4610296565b6040516100e19190610bc7565b60405180910390f35b6100f2610328565b6040516100ff9190610c02565b60405180910390f35b610122600480360381019061011d9190610c5d565b610335565b6040516101329493929190610ce6565b60405180910390f35b6101436104c8565b6040516101509190610c02565b60405180910390f35b6101616104ce565b005b61016b6105cc565b6040516101789190610d39565b60405180910390f35b61019b60048036038101906101969190610eb5565b6105f0565b005b6101b760048036038101906101b29190610f40565b61074d565b005b6101d360048036038101906101ce9190610c5d565b6107bf565b6040516101e39493929190610ce6565b60405180910390f35b61020660048036038101906102019190610f89565b61093c565b005b6003805461021590610fe5565b80601f016020809104026020016040519081016040528092919081815260200182805461024190610fe5565b801561028e5780601f106102635761010080835404028352916020019161028e565b820191906000526020600020905b81548152906001019060200180831161027157829003601f168201915b505050505081565b6060600380546102a590610fe5565b80601f01602080910402602001604051908101604052809291908181526020018280546102d190610fe5565b801561031e5780601f106102f35761010080835404028352916020019161031e565b820191906000526020600020905b81548152906001019060200180831161030157829003601f168201915b5050505050905090565b6000600180549050905090565b60608060008060006001868154811061035157610350611017565b5b9060005260206000209060030201905080600001816001018260020160009054906101000a900473ffffffffffffffffffffffffffffffffffffffff168360020160149054906101000a900460ff168380546103ac90610fe5565b80601f01602080910402602001604051908101604052809291908181526020018280546103d890610fe5565b80156104255780601f106103fa57610100808354040283529160200191610425565b820191906000526020600020905b81548152906001019060200180831161040857829003601f168201915b5050505050935082805461043890610fe5565b80601f016020809104026020016040519081016040528092919081815260200182805461046490610fe5565b80156104b15780601f10610486576101008083540402835291602001916104b1565b820191906000526020600020905b81548152906001019060200180831161049457829003601f168201915b505050505092509450945094509450509193509193565b60025481565b60008054906101000a900473ffffffffffffffffffffffffffffffffffffffff1673ffffffffffffffffffffffffffffffffffffffff163373ffffffffffffffffffffffffffffffffffffffff161461052657600080fd5b60008054906101000a900473ffffffffffffffffffffffffffffffffffffffff1673ffffffffffffffffffffffffffffffffffffffff167ff8df31144d9c2f0f6b59d69b8b98abd5459d07f2742c4df920b25aae33c6482060405160405180910390a260008060006101000a81548173ffffffffffffffffffffffffffffffffffffffff021916908373ffffffffffffffffffffffffffffffffffffffff160217905550565b60008054906101000a900473ffffffffffffffffffffffffffffffffffffffff1681565b60008054906101000a900473ffffffffffffffffffffffffffffffffffffffff1673ffffffffffffffffffffffffffffffffffffffff163373ffffffffffffffffffffffffffffffffffffffff161461064857600080fd5b60008351141561065757600080fd5b600060018081600181540180825580915050039060005260206000209060030201905083816000019080519060200190610692929190610a8b565b50828160010190805190602001906106ab929190610a8b565b50818160020160006101000a81548173ffffffffffffffffffffffffffffffffffffffff021916908373ffffffffffffffffffffffffffffffffffffffff16021790555060018160020160146101000a81548160ff0219169083151502179055507fb80245e34fd7c6d574c0f158d630ed955929a30ca1ae8ba02b11cb42afb225f384848460405161073f93929190611046565b60405180910390a150505050565b60008054906101000a900473ffffffffffffffffffffffffffffffffffffffff1673ffffffffffffffffffffffffffffffffffffffff163373ffffffffffffffffffffffffffffffffffffffff16146107a557600080fd5b80600390805190602001906107bb929190610a8b565b5050565b600181815481106107cf57600080fd5b90600052602060002090600302016000915090508060000180546107f290610fe5565b80601f016020809104026020016040519081016040528092919081815260200182805461081e90610fe5565b801561086b5780601f106108405761010080835404028352916020019161086b565b820191906000526020600020905b81548152906001019060200180831161084e57829003601f168201915b50505050509080600101805461088090610fe5565b80601f01602080910402602001604051908101604052809291908181526020018280546108ac90610fe5565b80156108f95780601f106108ce576101008083540402835291602001916108f9565b820191906000526020600020905b8154815290600101906020018083116108dc57829003601f168201915b5050505050908060020160009054906101000a900473ffffffffffffffffffffffffffffffffffffffff16908060020160149054906101000a900460ff16905084565b60008054906101000a900473ffffffffffffffffffffffffffffffffffffffff1673ffffffffffffffffffffffffffffffffffffffff163373ffffffffffffffffffffffffffffffffffffffff161461099457600080fd5b600073ffffffffffffffffffffffffffffffffffffffff168173ffffffffffffffffffffffffffffffffffffffff1614156109ce57600080fd5b8073ffffffffffffffffffffffffffffffffffffffff1660008054906101000a900473ffffffffffffffffffffffffffffffffffffffff1673ffffffffffffffffffffffffffffffffffffffff167f8be0079c531659141344cd1fd0a4f28419497f9722a3daafe3b4186f6b6457e060405160405180910390a3806000806101000a81548173ffffffffffffffffffffffffffffffffffffffff021916908373ffffffffffffffffffffffffffffffffffffffff16021790555050565b828054610a9790610fe5565b90600052602060002090601f016020900481019282610ab95760008555610b00565b82601f10610ad257805160ff1916838001178555610b00565b82800160010185558215610b00579182015b82811115610aff578251825591602001919060010190610ae4565b5b509050610b0d9190610b11565b5090565b5b80821115610b2a576000816000905550600101610b12565b5090565b600081519050919050565b600082825260208201905092915050565b60005b83811015610b68578082015181840152602081019050610b4d565b83811115610b77576000848401525b50505050565b6000601f19601f8301169050919050565b6000610b9982610b2e565b610ba38185610b39565b9350610bb3818560208601610b4a565b610bbc81610b7d565b840191505092915050565b60006020820190508181036000830152610be18184610b8e565b905092915050565b6000819050919050565b610bfc81610be9565b82525050565b6000602082019050610c176000830184610bf3565b92915050565b6000604051905090565b600080fd5b600080fd5b610c3a81610be9565b8114610c4557600080fd5b50565b600081359050610c5781610c31565b92915050565b600060208284031215610c7357610c72610c27565b5b6000610c8184828501610c48565b91505092915050565b600073ffffffffffffffffffffffffffffffffffffffff82169050919050565b6000610cb582610c8a565b9050919050565b610cc581610caa565b82525050565b60008115159050919050565b610ce081610ccb565b82525050565b60006080820190508181036000830152610d008187610b8e565b90508181036020830152610d148186610b8e565b9050610d236040830185610cbc565b610d306060830184610cd7565b95945050505050565b6000602082019050610d4e6000830184610cbc565b92915050565b600080fd5b600080fd5b7f4e487b7100000000000000000000000000000000000000000000000000000000600052604160045260246000fd5b610d9682610b7d565b810181811067ffffffffffffffff82111715610db557610db4610d5e565b5b80604052505050565b6000610dc8610c1d565b9050610dd48282610d8d565b919050565b600067ffffffffffffffff821115610df457610df3610d5e565b5b610dfd82610b7d565b9050602081019050919050565b82818337600083830152505050565b6000610e2c610e2784610dd9565b610dbe565b905082815260208101848484011115610e4857610e47610d59565b5b610e53848285610e0a565b509392505050565b600082601f830112610e7057610e6f610d54565b5b8135610e80848260208601610e19565b91505092915050565b610e9281610caa565b8114610e9d57600080fd5b50565b600081359050610eaf81610e89565b92915050565b600080600060608486031215610ece57610ecd610c27565b5b600084013567ffffffffffffffff811115610eec57610eeb610c2c565b5b610ef886828701610e5b565b935050602084013567ffffffffffffffff811115610f1957610f18610c2c565b5b610f2586828701610e5b565b9250506040610f3686828701610ea0565b9150509250925092565b600060208284031215610f5657610f55610c27565b5b600082013567ffffffffffffffff811115610f7457610f73610c2c565b5b610f8084828501610e5b565b91505092915050565b600060208284031215610f9f57610f9e610c27565b5b6000610fad84828501610ea0565b91505092915050565b7f4e487b7100000000000000000000000000000000000000000000000000000000600052602260045260246000fd5b60006002820490506001821680610ffd57607f821691505b6020821081141561101157611010610fb6565b5b50919050565b7f4e487b7100000000000000000000000000000000000000000000000000000000600052603260045260246000fd5b600060608201905081810360008301526110608186610b8e565b905081810360208301526110748185610b8e565b90506110836040830184610cbc565b94935050505056fea264697066735822122013b25165d964564ff5da2d8397ed4c75987e50233fadd0c3360deb5ea047b86464736f6c634300080c0033",
  "linkReferences": {},
  "deployedLinkReferences": {}
}