{
  "_format": "hh-sol-artifact-1",
  "contractName": "MarketplaceList",
  "sourceName": "contracts/MarketplaceList.sol",
  "abi": [
    {
      "anonymous": false,
      "inputs": [
        {
          "indexed": false,
          "internalType": "string",
          "name": "mpName",
          "type": "string"
        },
        {
          "indexed": false,
          "internalType": "string",
          "name": "mpMetaHash",
          "type": "string"
        },
        {
          "indexed": false,
          "internalType": "address",
          "name": "mpAddress",
          "type": "address"
        }
      ],
      "name": "MarketplaceAdded",
      "type": "event"
    },
    {
      "anonymous": false,
      "inputs": [
        {
          "indexed": true,
          "internalType": "address",
          "name": "previousOwner",
          "type": "address"
        }
      ],
      "name": "OwnershipRenounced",
      "type": "event"
    },
    {
      "anonymous": false,
      "inputs": [
        {
          "indexed": true,
          "internalType": "address",
          "name": "previousOwner",
          "type": "address"
        },
        {
          "indexed": true,
          "internalType": "address",
          "name": "newOwner",
          "type": "address"
        }
      ],
      "name": "OwnershipTransferred",
      "type": "event"
    },
    {
      "inputs": [
        {
          "internalType": "string",
          "name": "_mpName",
          "type": "string"
        },
        {
          "internalType": "string",
          "name": "_mpMetaHash",
          "type": "string"
        },
        {
          "internalType": "address",
          "name": "_mpAddress",
          "type": "address"
        }
      ],
      "name": "addMarketplace",
      "outputs": [],
      "stateMutability": "nonpayable",
      "type": "function"
    },
    {
      "inputs": [],
      "name": "defaultTTL",
      "outputs": [
        {
          "internalType": "uint256",
          "name": "",
          "type": "uint256"
        }
      ],
      "stateMutability": "view",
      "type": "function"
    },
    {
      "inputs": [],
      "name": "numberOfMarketplaces",
      "outputs": [
        {
          "internalType": "uint256",
          "name": "",
          "type": "uint256"
        }
      ],
      "stateMutability": "view",
      "type": "function"
    },
    {
      "inputs": [],
      "name": "owner",
      "outputs": [
        {
          "internalType": "address",
          "name": "",
          "type": "address"
        }
      ],
      "stateMutability": "view",
      "type": "function"
    },
    {
      "inputs": [
        {
          "internalType": "uint256",
          "name": "_index",
          "type": "uint256"
        }
      ],
      "name": "readMarketplace",
      "outputs": [
        {
          "internalType": "string",
          "name": "mpName",
          "type": "string"
        },
        {
          "internalType": "string",
          "name": "mpMetaHash",
          "type": "string"
        },
        {
          "internalType": "address",
          "name": "mpAddress",
          "type": "address"
        },
        {
          "internalType": "bool",
          "name": "mpShown",
          "type": "bool"
        }
      ],
      "stateMutability": "view",
      "type": "function"
    },
    {
      "inputs": [],
      "name": "renounceOwnership",
      "outputs": [],
      "stateMutability": "nonpayable",
      "type": "function"
    },
    {
      "inputs": [
        {
          "internalType": "address",
          "name": "newOwner",
          "type": "address"
        }
      ],
      "name": "transferOwnership",
      "outputs": [],
      "stateMutability": "nonpayable",
      "type": "function"
    }
  ],
  "bytecode": "0x608060405234801561001057600080fd5b50336000806101000a81548173ffffffffffffffffffffffffffffffffffffffff021916908373ffffffffffffffffffffffffffffffffffffffff160217905550610d22806100606000396000f3fe608060405234801561001057600080fd5b506004361061007d5760003560e01c8063715018a61161005b578063715018a6146100f15780638da5cb5b146100fb578063b1ae4f1214610119578063f2fde38b146101355761007d565b806335d4d0c71461008257806344726369146100a057806347426ed2146100d3575b600080fd5b61008a610151565b604051610097919061079b565b60405180910390f35b6100ba60048036038101906100b591906107f6565b61015e565b6040516100ca9493929190610918565b60405180910390f35b6100db6102f1565b6040516100e8919061079b565b60405180910390f35b6100f96102f7565b005b6101036103f5565b604051610110919061096b565b60405180910390f35b610133600480360381019061012e9190610ae7565b610419565b005b61014f600480360381019061014a9190610b72565b610590565b005b6000600180549050905090565b60608060008060006001868154811061017a57610179610b9f565b5b9060005260206000209060030201905080600001816001018260020160009054906101000a900473ffffffffffffffffffffffffffffffffffffffff168360020160149054906101000a900460ff168380546101d590610bfd565b80601f016020809104026020016040519081016040528092919081815260200182805461020190610bfd565b801561024e5780601f106102235761010080835404028352916020019161024e565b820191906000526020600020905b81548152906001019060200180831161023157829003601f168201915b5050505050935082805461026190610bfd565b80601f016020809104026020016040519081016040528092919081815260200182805461028d90610bfd565b80156102da5780601f106102af576101008083540402835291602001916102da565b820191906000526020600020905b8154815290600101906020018083116102bd57829003601f168201915b505050505092509450945094509450509193509193565b60025481565b60008054906101000a900473ffffffffffffffffffffffffffffffffffffffff1673ffffffffffffffffffffffffffffffffffffffff163373ffffffffffffffffffffffffffffffffffffffff161461034f57600080fd5b60008054906101000a900473ffffffffffffffffffffffffffffffffffffffff1673ffffffffffffffffffffffffffffffffffffffff167ff8df31144d9c2f0f6b59d69b8b98abd5459d07f2742c4df920b25aae33c6482060405160405180910390a260008060006101000a81548173ffffffffffffffffffffffffffffffffffffffff021916908373ffffffffffffffffffffffffffffffffffffffff160217905550565b60008054906101000a900473ffffffffffffffffffffffffffffffffffffffff1681565b60008054906101000a900473ffffffffffffffffffffffffffffffffffffffff1673ffffffffffffffffffffffffffffffffffffffff163373ffffffffffffffffffffffffffffffffffffffff161461047157600080fd5b60008351141561048057600080fd5b6000600180549050905060006001828061049990610c5e565b9350815481106104ac576104ab610b9f565b5b90600052602060002090600302019050848160000190805190602001906104d49291906106df565b50838160010190805190602001906104ed9291906106df565b50828160020160006101000a81548173ffffffffffffffffffffffffffffffffffffffff021916908373ffffffffffffffffffffffffffffffffffffffff16021790555060018160020160146101000a81548160ff0219169083151502179055507fb80245e34fd7c6d574c0f158d630ed955929a30ca1ae8ba02b11cb42afb225f385858560405161058193929190610ca7565b60405180910390a15050505050565b60008054906101000a900473ffffffffffffffffffffffffffffffffffffffff1673ffffffffffffffffffffffffffffffffffffffff163373ffffffffffffffffffffffffffffffffffffffff16146105e857600080fd5b600073ffffffffffffffffffffffffffffffffffffffff168173ffffffffffffffffffffffffffffffffffffffff16141561062257600080fd5b8073ffffffffffffffffffffffffffffffffffffffff1660008054906101000a900473ffffffffffffffffffffffffffffffffffffffff1673ffffffffffffffffffffffffffffffffffffffff167f8be0079c531659141344cd1fd0a4f28419497f9722a3daafe3b4186f6b6457e060405160405180910390a3806000806101000a81548173ffffffffffffffffffffffffffffffffffffffff021916908373ffffffffffffffffffffffffffffffffffffffff16021790555050565b8280546106eb90610bfd565b90600052602060002090601f01602090048101928261070d5760008555610754565b82601f1061072657805160ff1916838001178555610754565b82800160010185558215610754579182015b82811115610753578251825591602001919060010190610738565b5b5090506107619190610765565b5090565b5b8082111561077e576000816000905550600101610766565b5090565b6000819050919050565b61079581610782565b82525050565b60006020820190506107b0600083018461078c565b92915050565b6000604051905090565b600080fd5b600080fd5b6107d381610782565b81146107de57600080fd5b50565b6000813590506107f0816107ca565b92915050565b60006020828403121561080c5761080b6107c0565b5b600061081a848285016107e1565b91505092915050565b600081519050919050565b600082825260208201905092915050565b60005b8381101561085d578082015181840152602081019050610842565b8381111561086c576000848401525b50505050565b6000601f19601f8301169050919050565b600061088e82610823565b610898818561082e565b93506108a881856020860161083f565b6108b181610872565b840191505092915050565b600073ffffffffffffffffffffffffffffffffffffffff82169050919050565b60006108e7826108bc565b9050919050565b6108f7816108dc565b82525050565b60008115159050919050565b610912816108fd565b82525050565b600060808201905081810360008301526109328187610883565b905081810360208301526109468186610883565b905061095560408301856108ee565b6109626060830184610909565b95945050505050565b600060208201905061098060008301846108ee565b92915050565b600080fd5b600080fd5b7f4e487b7100000000000000000000000000000000000000000000000000000000600052604160045260246000fd5b6109c882610872565b810181811067ffffffffffffffff821117156109e7576109e6610990565b5b80604052505050565b60006109fa6107b6565b9050610a0682826109bf565b919050565b600067ffffffffffffffff821115610a2657610a25610990565b5b610a2f82610872565b9050602081019050919050565b82818337600083830152505050565b6000610a5e610a5984610a0b565b6109f0565b905082815260208101848484011115610a7a57610a7961098b565b5b610a85848285610a3c565b509392505050565b600082601f830112610aa257610aa1610986565b5b8135610ab2848260208601610a4b565b91505092915050565b610ac4816108dc565b8114610acf57600080fd5b50565b600081359050610ae181610abb565b92915050565b600080600060608486031215610b0057610aff6107c0565b5b600084013567ffffffffffffffff811115610b1e57610b1d6107c5565b5b610b2a86828701610a8d565b935050602084013567ffffffffffffffff811115610b4b57610b4a6107c5565b5b610b5786828701610a8d565b9250506040610b6886828701610ad2565b9150509250925092565b600060208284031215610b8857610b876107c0565b5b6000610b9684828501610ad2565b91505092915050565b7f4e487b7100000000000000000000000000000000000000000000000000000000600052603260045260246000fd5b7f4e487b7100000000000000000000000000000000000000000000000000000000600052602260045260246000fd5b60006002820490506001821680610c1557607f821691505b60208210811415610c2957610c28610bce565b5b50919050565b7f4e487b7100000000000000000000000000000000000000000000000000000000600052601160045260246000fd5b6000610c6982610782565b91507fffffffffffffffffffffffffffffffffffffffffffffffffffffffffffffffff821415610c9c57610c9b610c2f565b5b600182019050919050565b60006060820190508181036000830152610cc18186610883565b90508181036020830152610cd58185610883565b9050610ce460408301846108ee565b94935050505056fea26469706673582212209f903f1bc0d68e8f40832e320d34ce9ab4771d6e6a4076ddfbdab97266b231d764736f6c634300080c0033",
  "linkReferences": {},
  "deployedLinkReferences": {}
}